:020000020000FC
:020000002DC011
:10001400002702BFAA23F9F0E519F0407A9469F4A5
:10002400782CFF93EF93615008F46FE1FAE0E0E07D
:10003400E60DE60F5490EF91FF919394941438F0E9
:100044009924AC1709F4CC2739918AD01895112733
:10005400E50DF11FBAD0189502E007BB04E008BB18
:1000640000E002BF05E003BF08E009BD00E109BFED
:1000740031E03EBDB1E0A0E0D1E0C0E04427662716
:100084002197499300E4302E0DE2402E00E0602ECB
:100094000FE7502E04E0802E789449D0403949F07F
:1000A400403889F0403B01F1403E49F1403D89F13F
:1000B400F3CF27FD3CD0322F3AD0203041F0ED0170
:1000C4003D934ED0E9CF27FD32D0322F30D0ED0111
:1000D4000A913017E9F709810993CA17E1F71197D3
:1000E40021973A913DD0D8CF27FD21D0322F1FD070
:1000F4003730A9F0313079F03530A1F0CDCF27FD7C
:1001040016D015D0E319F040322EE30DF11F5DD067
:10011400C3CF27FD0CD0220F207E622EBDCF2D5FD2
:10012400422EBACF229527702395822EB5CFB2994D
:10013400FECFF89400E200000A95E9F718E020E009
:100144000EE388940A95E9F700000000B299089438
:1001540027951A95A9F7B29BFECF27FD422F089544
:100164003D50E8F13C5090F03C5090F03C5090F001
:100174003C5090F03C5090F03C5090F03C5090F04B
:100184003C5090F03C5012C010E911C01BE90FC064
:100194001AE90DC019E90BC018E909C017E907C02D
:1001A40016E905C015E903C014E901C013E9345F79
:1001B400F1E0E0E732950027330FF01FE30FF01F63
:1001C40010BFE30DF01FE50DF01F34913DBD0FB5D9
:1001D400301720F432E03CBD33273FBD089511278A
:1001E40010BF0895FFFFFEFEFDFDFCFCFBFBFAFAC9
:1001F400FAF9F9F8F8F7F7F6F6F6F5F5F4F4F3F397
:10020400F2F2F2F1F1F0F0EFEFEFEEEEEDEDECECF7
:10021400ECEBEBEAEAE9E9E9E8E8E7E7E6E6E6E554
:10022400E5E4E4E4E3E3E2E2E2E1E1E0E0E0DFDFAD
:10023400DEDEDEDDDDDCDCDCDBDBDADADAD9D9D804
:10024400D8D8D7D7D6D6D6D5D5D5D4D4D3D3D3D258
:10025400D2D1D1D1D0D0D0CFCFCECECECDCDCDCCAA
:10026400CCCBCBCBCACACAC9C9C9C8C8C7C7C7C6F9
:10027400C6C6C5C5C5C4C4C4C3C3C3C2C2C1C1C143
:10028400C0C0C0BFBFBFBEBEBEBDBDBDBCBCBCBB8D
:10029400BBBBBABABAB9B9B9B8B8B8B7B7B7B6B6D2
:1002A400B6B5B5B5B4B4B4B3B3B3B2B2B2B1B1B117
:1002B400B0B0B0AFAFAFAFAEAEAEADADADACACAC59
:1002C400ABABABAAAAAAAAA9A9A9A8A8A8A7A7A799
:1002D400A7A6A6A6A5A5A5A4A4A4A4A3A3A3A2A2D5
:1002E400A2A2A1A1A1A0A0A09F9F9F9F9E9E9E9D10
:1002F4009D9D9D9C9C9C9C9B9B9B9A9A9A9A999948
:10030400999898989897979797969696959595957E
:1003140094949494939393939292929191919190B3
:100324009090908F8F8F8F8E8E8E8E8D8D8D8D8CE5
:100334008C8C8C8B8B8B8B8A8A8A8A898989898815
:100344008888888787878786868686858585858445
:100354008484848383838383828282828181818172
:1003640080808080807F7F7F7F7E7E7E7E7D7D7D9E
:100374007D7D7C7C7C7C7B7B7B7B7B7A7A7A7A79C7
:1003840079797979787878787777777777767676F0
:100394007676757575757474747474737373737316
:1003A4007272727272717171717170707070706F3B
:1003B4006F6F6F6F6E6E6E6E6E6D6D6D6D6D6C6C5E
:1003C4006C6C6C6B6B6B6B6B6A6A6A6A6A69696981
:1003D40069696968686868686767676767666666A1
:1003E40066666665656565656464646464646363C0
:1003F40063636362626262626261616161616160DE
:040404006060606074
:100A00007F7F7F7F7F7F7F7F7F7F7F7F7F7F7F7FF6
:100A10007F7F7F7F7F7F7F7F7F7F7F7F7F7F7F7FE6
:100A20007F7F7F80808080808080808080807F7FCB
:100A30007F7F7F7E7E7E7E7E7E7E7E7E7E7E7F7FD1
:100A40007F7F808080818181818181818080807FA2
:100A50007F7F7E7E7E7D7D7D7D7D7D7D7E7E7E7FBA
:100A60007F80808181818282828282818181808077
:100A70007F7E7E7D7D7D7C7C7C7C7C7D7D7D7E7EA5
:100A80007F8081818282838383838382828181804C
:100A90007F7E7D7D7C7C7B7B7B7B7B7C7C7D7D7E90
:100AA0007F80818283838484848484838382818021
:100AB0007F7E7D7C7B7B7A7A7A7A7A7B7B7C7D7E7B
:100AC0007F808182838485858585858483828180FA
:100AD0007F7E7D7C7B7A79797979797A7B7C7D7E62
:100AE0007F808283848585868686858584838280CF
:100AF0007F7E7C7B7A797978787879797A7B7C7E4D
:00000001FF
